:03000000020CB738
:0C0CB700787FE4F6D8FD758187020CFE02
:100F4700023200C8202048000102030405060708F2
:100F5700090001020304050607080900010203044A
:070F670005060708090B0C49
:0F106800759850758920758DFD758BFDD28E2280
:0810AD008F993099FDC29922D0
:100F96008B0A8A0B890CAB0AAA0BA90C120A65608C
:100FA60013050CE50C7002050B14F9120A65FF1205
:050FB60010AD80E222F5
:10104600438901758CFC758A18D2AFD2A9D28CD28D
:02105600B922BD
:100D4300C2A5C2A4D2A3D2A4C2A4D2A3D2A4C2A431
:100D5300C2A3D2A4C2A4D2A3D2A4C2A47F08E53F53
:100D630025E0F53FC2A4D2A430A303433F01D2A39D
:100D7300DFECD2A5AC3FE41209B0E4FBFA7980784A
:100D830043120909E4FBFA79FA78431208001209BD
:100D9300E48F268E258D248C23EC335009E4F5262D
:0E0DA300F525F524F523AF26AE25AD24AC23AF
:010DB100221F
:100FF900D3EF9400EE940040147D707C00ED1D70D9
:0D100900011CED4C70F7EF1F70E61E80E338
:0110160022B7
:100B7C00E4F508F509D2A6121046121058786876DA
:100B8C0032087630087630121068120D43C3E52611
:100B9C009533E52595325004C2A68002D2A6E47B9B
:100BAC0064FAF9F8AF26AE25AD24AC23120E0AEF89
:100BBC002430F535E47B0AFAF9F8AF26AE25AD24DE
:100BCC00AC23120E0AE47B0AFAF9F8120E0AEB2493
:100BDC0030F536E47B0AFAF9F8AF26AE25AD24AC35
:100BEC0023120E0AEB2430F537E4F538FB7A007942
:100BFC0035120F96120E8B7F147E00121017120FE7
:100C0C006F7F147E001210177868E624D0F5340834
:100C1C00E624D0F53D08E624D0F53EE53D75F00A16
:100C2C00A4FDACF0E53475F064A42DFFE5F03CFEBA
:100C3C007C00EF253EF533EC3EF532E53164016086
:100C4C0003020B96F5317B64FAF9F8AF26AE25ADAD
:100C5C0024AC23120E0AEF2430F529E47B0AFAF9AE
:100C6C00F8AF26AE25AD24AC23120E0AE47B0AFAAB
:100C7C00F9F8120E0AEB2430F52AE47B0AFAF9F89B
:100C8C00AF26AE25AD24AC23120E0AEB2430F52B87
:100C9C00E4F52CFB7A007929120DB2120FDAEF7001
:0B0CAC00FA7FC87E00121017020B96A2
:03000B00020EF2F0
:040EF200C0E0C0D0CC
:100EF600758CFC758A180522E52270020521C394BB
:100F0600F4E5219401400B752100752200B2A0750D
:020F16003101A7
:050F1800D0D0D0E03252
:0510B50034431010019E
:100FBB00E4FEEF30E704D2918002C291EF25E0FF0F
:0E0FCB00D294309303430701C2940EBE08E493
:010FD90022F5
:101058007F027E00121085C295D290C294D292224D
:0C109300C290120FBBE4FF120FBBD29002
:01109F00222E
:041031007DFF7F2799
:10103500C290120FBBAC07AF05120FBBD290AF0425
:011045002288
:060EC1008B0B8A0C890D69
:100EC700C290120FBBAD07E4FCECC3950E5017E4BC
:100ED700FF120FBBAB0BAA0CA90D8C82758300EF19
:0A0EE700120A7E0C80E3D290AF05E2
:010EF10022DE
:0B0E4E007BFF7A1079B57511057F2A33
:060E59008B0E8A0F8910C8
:100E5F00C290120FBBAD07E4FCECC395115018AB59
:100E6F000E0510E510AA0F7002050F14F9120A658E
:0B0E7F00FF120FBB0C80E2D290AF0509
:010E8A002245
:100DB2008B0A8A0B890CC2957BFF7A1079B5751163
:100DC200057F30120E59120E4EAB0AAA0BA90C75F2
:100DD20011207FA0120E597D017F211210357F2232
:100DE2001210357D0A7F241210357D407F251210A6
:100DF200357D077F261210357D0E7F20121035D2E9
:080E0200957F057E00021085BA
:100E8B00C295120E4E7D017F211210357F2212105A
:100E9B00357D407F251210357D207F311210357D39
:100EAB00077F261210357D0F7F20121035D2957FCC
:060EBB00057E0002108517
:0E1077007F071210938F2030050312103122D4
:100F6F007F071210938F2030061CC2957B007A00EA
:100F7F007968750E207F61120EC1121031C2907FF9
:070F8F00E2120FBBD2902219
:100FDA007F071210938F2020050330040F1210315F
:0F0FEA00C2907FE1120FBBD2907F00227F0122C5
:060F1D008B128A138914F7
:100F2300E4FB7F071210938F20300612C295AB1299
:100F3300AA13A914750E207F61120EC17B01121032
:030F430031AF03C8
:010F46002288
:0D108500EFD3940040077E6EDEFE1F80F367
:01109200223B
:0C10A000E4FDEDC39FE49E50030D80F6BC
:0110AC002221
:10101700EF1FAA0670011E4A600F7D16EDD39400DC
:0910270040EE7C0ADCFE1D80F3A2
:01103000229D
:10080000EC4D6011E8497017ED33EC3304600DE4F2
:10081000FCFFFEFD22E933E8330470F8020A5012AF
:100820000A1B58046009E4CC2481500628500902B0
:100830000A5A284003020A57C0E0EB4A7044B980C4
:1008400006D0E0FB020A46EF4E701CBD8008EBFFAD
:10085000EAFEE9FD80EBE98DF0A4FEE5F00208E98F
:10086000E9CDF9EAFEEBFFEF89F0A4FCE5F0CE89D3
:10087000F0A42EFFE435F0CD89F0A42DFEE435F090
:100880008067EF4E7005BD80D780C3EF8BF0A4ACBE
:10089000F0EE8BF0A42CFCE435F0F8EF8AF0A42CF9
:1008A000E5F038FCE433CB8DF0A42CFCE5F03BF80C
:1008B000EE8AF0A42CFCE5F038F8E433CF89F0A4FC
:1008C0002CFCE5F038CF3400CE89F0A42FFFE5F002
:1008D0003EFEE433C98DF0A42EFEE5F039CD8AF05A
:1008E000A42FFFE5F03EFEE43DFD33D0E0FB5007D2
:1008F0000BBB000F020A5AEC2CFCEF33FFEE33FE69
:06090000ED33FD020A3296
:10090600020A5AEC5D046005E859047003020A50B5
:10091600120A1B580460F6EC4860F2EC7004FDFE07
:10092600FF22C860DB2481C85009C39860025006C4
:10093600020A579850CAF582E9294B4A7005AB82DC
:10094600020A4675F0007C1A7880C3EF9BEE9AED9A
:1009560099400DC3EF9BFFEE9AFEED99FDE842F03C
:10096600DC23ACF0D0E0FFD0E0FED0E0FDAB82208F
:10097600E7101BEB60BAEC2CFCEF33FFEE33FEED19
:1009860033FD020A32E803F830E705C0F075F000DF
:10099600EF2FFFEE33FEED33FD40B830E7C280AAFD
:1009A60075F020800E75F010800575F0087D007ECC
:1009B600007F003392D530D503120AA0EC334010E5
:1009C600EF33FFEE33FEED33FDEC33FCD5F0ED22D5
:0E09D600E5F0247EA2D513CC92E7CDCEFF2211
:1009E400EDD2E7CD33EC3392D524814006E4FFFE0B
:1009F400FDFC22FCE4CFCECDCC24E0501174FF806A
:100A0400EDC3CC13CCCD13CDCE13CECF13CF047006
:070A1400F030D5DE020AA05C
:100A1B00E9D2E7C933E833F892D5EDD2E7CD33EC21
:070A2B0033FC5002B2D5229A
:100A3200EC30E7100FBF000C0EBE00080DBD000425
:100A42000BEB6014A2D5EB13FCED92E7FD2274FFD1
:100A5200FCFDFEFF22E480F8A2D574FF13FC7D802A
:030A6200E480EF3E
:100CC300020B7CE493A3F8E493A34003F68001F2C0
:100CD30008DFF48029E493A3F85407240CC8C33332
:100CE300C4540F4420C8834004F456800146F6DF01
:100CF300E4800B0102040810204080900F47E47E3B
:100D0300019360BCA3FF543F30E509541FFEE493F5
:100D1300A360010ECF54C025E060A840B8E493A3BC
:100D2300FAE493A3F8E493A3C8C582C8CAC583CAE7
:100D3300F0A3C8C582C8CAC583CADFE9DEE780BE9F
:010F6E000082
:100A6500BB010689828A83E0225002E722BBFE028F
:090A7500E32289828A83E49322C2
:100A7E00F8BB010DE58229F582E5833AF583E8F0AE
:100A8E00225006E92582C8F622BBFE05E92582C85A
:020A9E00F22242
:100E0A00C2D5E830E70FB2D5E4C39BFBE49AFAE413
:100E1A0099F9E498F8EC30E717B2D5120E40120AA5
:100E2A00EAE4C39BFBE49AFAE499F9E498F88003AC
:100E3A00120AEA30D50DE4C39FFFE49EFEE49DFD4D
:040E4A00E49CFC2206
:0E0AA000C3E49FFFE49EFEE49DFDE49CFC2267
:100AAE0075F008758200EF2FFFEE33FECD33CDCCFF
:100ABE0033CCC58233C5829BED9AEC99E582984082
:100ACE000CF582EE9BFEED9AFDEC99FC0FD5F0D65F
:100ADE00E4CEFBE4CDFAE4CCF9A88222B800C1B989
:100AEE000059BA002DEC8BF084CFCECDFCE5F0CBC7
:100AFE00F97818EF2FFFEE33FEED33FDEC33FCEB00
:100B0E0033FB10D703994004EB99FB0FD8E5E4F9BA
:100B1E00FA227818EF2FFFEE33FEED33FDEC33FCA7
:100B2E00C933C910D7059BE99A4007EC9BFCE99A9B
:100B3E00F90FD8E0E4C9FAE4CCFB2275F010EF2FE0
:100B4E00FFEE33FEED33FDCC33CCC833C810D707E0
:100B5E009BEC9AE899400AED9BFDEC9AFCE899F81B
:0E0B6E000FD5F0DAE4CDFBE4CCFAE4C8F922AE
:00000001FF
