:03000000020A32BF
:0C0A3200787FE4F6D8FD758174020A7923
:0F0DB8004C6576656C3A005365743A3230300002
:100C3C00022500C820203500010203040506070820
:100C4C000900010203040506070809000102030458
:070C5C0005060708090B0C57
:100CF100D3EF9400EE940040147D707C00ED1D70E4
:0D0D0100011CED4C70F7EF1F70E61E80E343
:010D0E0022C2
:1008000030B4030208857F057E00120CF120B47518
:1008100030B4FD0526E52670020525C394F4E525D0
:1008200094014005E4F525F526AE25AF267C007D34
:10083000641209DDEF2430F52AAE25AF267C007D59
:100840000A1209DD7C007D0A1209DDED2430F52B4A
:10085000AE25AF267C007D0A1209DDED2430F52C93
:10086000E4F52DFB7A00792A7D017F04120C647B6C
:10087000007A00792A120B16120CD2EF70FA7FC898
:100880007E00120D0F30B50302090C7F057E0012A9
:100890000CF120B57730B5FDE5261526700215253B
:1008A000D3E5269400E52594005005E4F525F526CA
:1008B000AE25AF267C007D641209DDEF2430F52AD9
:1008C000AE25AF267C007D0A1209DD7C007D0A1270
:1008D00009DDED2430F52BAE25AF267C007D0A1214
:1008E00009DDED2430F52CE4F52DFB7A00792A7D25
:1008F000017F04120C647B007A00792A120B161215
:0D0900000CD2EF70FA7FC87E00120D0F229E
:100D5200438901758CFC758A18D2AFD2A9D28CD284
:020D6200B922B4
:10090D00E4F510F511120D52120D88120D3E7BFFFC
:10091D007A0D79B8E4FDFF120C647BFF7A0D79BF77
:10092D007D01E4FF120C647F147E00120D0F120B7B
:10093D00AB7F147E00120D0F120C8C7F147E0012F3
:10094D000D0F7B007A007955E4FD7F06120C64785B
:10095D0055E624D0F52708E624D0F52808E624D05E
:10096D00F529E52875F00AA4FDACF0E52775F064CE
:10097D00A42DFFE5F03CFE7C00EF2529F524EC3E8F
:10098D00F523D3E5249526E52395255004C29680BD
:05099D0096D296809245
:03000B00020ABE28
:100ABE00C0E0C0F0C083C082C0D075D000C000C0FE
:0D0ACE0001C002C003C004C005C006C0077F
:100ADB00758CFC758A181208000522E52270020538
:100AEB0021C394F4E5219401400675210075220081
:100AFB00D007D006D005D004D003D002D001D0004F
:0B0B0B00D0D0D082D083D0F0D0E032F8
:050DFD00344310100159
:100CB300E4FEEF30E704D2918002C291EF25E0FF1A
:0E0CC300D294309303430701C2940EBE08E49E
:010CD1002200
:100D88007F027E00120DD5C295D290C294D29222D3
:0C0DE300C290120CB3E4FF120CB3D290CB
:010DEF0022E1
:040D29007DFF7F27A4
:100D2D00C290120CB3AC07AF05120CB3D290AF0446
:010D3D002293
:060BE1008B138A14891534
:100BE700C290120CB3AD07E4FCECC395165017E4A2
:100BF700FF120CB3AB13AA14A9158C82758300EFEF
:0A0C07001209BB0C80E3D290AF0588
:010C110022C0
:0B0B6E007BFF7A0D79FD751E057F2AC4
:060B79008B1B8A1C891D84
:100B7F00C290120CB3AD07E4FCECC3951E5018AB3A
:100B8F001B051DE51DAA1C7002051C14F91209A2F4
:0B0B9F00FF120CB30C80E2D290AF05F7
:010BAA002228
:100B16008B178A188919C2957BFF7A0D79FD751E88
:100B2600057F30120B79120B6EAB17AA18A919752F
:100B36001E207FA0120B797D017F21120D2D7F22B1
:100B4600120D2D7D0A7F24120D2D7D407F25120D5D
:100B56002D7D077F26120D2D7D0E7F20120D2DD2A5
:080B6600957F057E00020DD50C
:100BAB00C295120B6E7D017F21120D2D7F22120D2E
:100BBB002D7D407F25120D2D7D207F31120D2D7D3A
:100BCB00077F26120D2D7D0F7F20120D2DD2957FC5
:060BDB00057E00020DD5AD
:0E0DC7007F07120DE38F20300503120D292245
:100C8C007F07120DE38F2030061CC2957B007A0083
:100C9C0079557516207F61120BE1120D29C2907FD8
:070CAC00E2120CB3D290220A
:100CD2007F07120DE38F2020050330040F120D2928
:0F0CE200C2907FE1120CB3D2907F00227F0122DB
:060C12008B328A338934A5
:100C1800E4FB7F07120DE38F20300612C295AB323A
:100C2800AA33A9347516207F61120BE17B01120DDE
:030C380029AF03DE
:010C3B002296
:0D0DD500EFD3940040077E6EDEFE1F80F31A
:010DE20022EE
:0C0DF000E4FDEDC39FE49E50030D80F66F
:010DFC0022D4
:100D0F00EF1FAA0670011E4A600F7D16EDD39400E7
:090D1F0040EE7C0ADCFE1D80F3AD
:010D280022A8
:100D64007580FFC2A7D2A6D2A5AF80C2A5EF20E7A7
:010D7400F688
:010D7500225B
:100D9800AE07120D64C2A7C2A68E80D2A5C2A52234
:100DA800AE07120D64D2A7C2A68E80D2A5C2A52214
:100D7600ED7004AC078004EF2440FCEC4480FF02D5
:020D86000D98C6
:100C64008B178A188919120D76AB17AA18A91912AD
:100C740009A260130519E5197002051814F912097F
:080C8400A2FF120DA880E2227C
:100D3E007F38120D987F0C120D987F06120D987F3A
:040D4E0001020D98F9
:100A3E0002090DE493A3F8E493A34003F68001F2B8
:100A4E0008DFF48029E493A3F85407240CC8C333B9
:100A5E00C4540F4420C8834004F456800146F6DF88
:100A6E00E4800B0102040810204080900C3CE47ED0
:100A7E00019360BCA3FF543F30E509541FFEE4937D
:100A8E00A360010ECF54C025E060A840B8E493A344
:100A9E00FAE493A3F8E493A3C8C582C8CAC583CA6F
:100AAE00F0A3C8C582C8CAC583CADFE9DEE780BE27
:010C63000090
:1009A200BB010689828A83E0225002E722BBFE0253
:0909B200E32289828A83E4932286
:1009BB00F8BB010DE58229F582E5833AF583E8F072
:1009CB00225006E92582C8F622BBFE05E92582C81E
:0209DB00F22206
:1009DD00BC000BBE0029EF8DF084FFADF022E4CCFE
:1009ED00F875F008EF2FFFEE33FEEC33FCEE9DECC7
:1009FD00984005FCEE9DFE0FD5F0E9E4CEFD22ED0D
:100A0D00F8F5F0EE8420D21CFEADF075F008EF2F56
:100A1D00FFED33FD4007985006D5F0F222C398FD47
:050A2D000FD5F0EA22E4
:00000001FF
